{
  "contractName": "Verifier",
  "abi": [
    {
      "inputs": [
        {
          "internalType": "string",
          "name": "message",
          "type": "string"
        },
        {
          "internalType": "uint8",
          "name": "v",
          "type": "uint8"
        },
        {
          "internalType": "bytes32",
          "name": "r",
          "type": "bytes32"
        },
        {
          "internalType": "bytes32",
          "name": "s",
          "type": "bytes32"
        }
      ],
      "name": "verifyString",
      "outputs": [
        {
          "internalType": "address",
          "name": "signer",
          "type": "address"
        }
      ],
      "stateMutability": "pure",
      "type": "function"
    }
  ],
  "bytecode": "0x608060405234801561001057600080fd5b5061076d806100206000396000f3fe608060405234801561001057600080fd5b506004361061002b5760003560e01c8063d2c3fbb714610030575b600080fd5b61004a600480360381019061004591906103d5565b610060565b6040516100579190610499565b60405180910390f35b6000806040518060400160405280602081526020017f19457468657265756d205369676e6564204d6573736167653a0a303030303030815250905060008087519050603983019150620f423f8111156100b857600080fd5b600080620186a090505b6000811461015c57600081846100d8919061051c565b90506000810361010057600083036100ff57600a826100f7919061051c565b9150506100c2565b5b828061010b9061054d565b935050818161011a9190610595565b8461012591906105d7565b9350600a82610134919061051c565b9150603081610143919061060b565b905084806101509061054d565b955050808553506100c2565b6000820361016d57601b915061017d565b601a8261017a919061060b565b91505b8185526000858b6040516020016101959291906106b0565b6040516020818303038152906040528051906020012090506001818b8b8b604051600081526020016040526040516101d094939291906106f2565b6020604051602081039080840390855afa1580156101f2573d6000803e3d6000fd5b505050602060405103519650505050505050949350505050565b6000604051905090565b600080fd5b600080fd5b600080fd5b600080fd5b6000601f19601f8301169050919050565b7f4e487b7100000000000000000000000000000000000000000000000000000000600052604160045260246000fd5b6102738261022a565b810181811067ffffffffffffffff821117156102925761029161023b565b5b80604052505050565b60006102a561020c565b90506102b1828261026a565b919050565b600067ffffffffffffffff8211156102d1576102d061023b565b5b6102da8261022a565b9050602081019050919050565b82818337600083830152505050565b6000610309610304846102b6565b61029b565b90508281526020810184848401111561032557610324610225565b5b6103308482856102e7565b509392505050565b600082601f83011261034d5761034c610220565b5b813561035d8482602086016102f6565b91505092915050565b600060ff82169050919050565b61037c81610366565b811461038757600080fd5b50565b60008135905061039981610373565b92915050565b6000819050919050565b6103b28161039f565b81146103bd57600080fd5b50565b6000813590506103cf816103a9565b92915050565b600080600080608085870312156103ef576103ee610216565b5b600085013567ffffffffffffffff81111561040d5761040c61021b565b5b61041987828801610338565b945050602061042a8782880161038a565b935050604061043b878288016103c0565b925050606061044c878288016103c0565b91505092959194509250565b600073ffffffffffffffffffffffffffffffffffffffff82169050919050565b600061048382610458565b9050919050565b61049381610478565b82525050565b60006020820190506104ae600083018461048a565b92915050565b6000819050919050565b7f4e487b7100000000000000000000000000000000000000000000000000000000600052601260045260246000fd5b7f4e487b7100000000000000000000000000000000000000000000000000000000600052601160045260246000fd5b6000610527826104b4565b9150610532836104b4565b925082610542576105416104be565b5b828204905092915050565b6000610558826104b4565b91507fffffffffffffffffffffffffffffffffffffffffffffffffffffffffffffffff820361058a576105896104ed565b5b600182019050919050565b60006105a0826104b4565b91506105ab836104b4565b92508282026105b9816104b4565b915082820484148315176105d0576105cf6104ed565b5b5092915050565b60006105e2826104b4565b91506105ed836104b4565b9250828203905081811115610605576106046104ed565b5b92915050565b6000610616826104b4565b9150610621836104b4565b9250828201905080821115610639576106386104ed565b5b92915050565b600081519050919050565b600081905092915050565b60005b83811015610673578082015181840152602081019050610658565b60008484015250505050565b600061068a8261063f565b610694818561064a565b93506106a4818560208601610655565b80840191505092915050565b60006106bc828561067f565b91506106c8828461067f565b91508190509392505050565b6106dd8161039f565b82525050565b6106ec81610366565b82525050565b600060808201905061070760008301876106d4565b61071460208301866106e3565b61072160408301856106d4565b61072e60608301846106d4565b9594505050505056fea264697066735822122037696c7a4532bf2dcabd153a1f66dd7fef78ff5b3da401850facbd170d4c380564736f6c63430008110033",
  "immutableReferences": {},
  "source": "// SPDX-License-Identifier: Deepanshu\npragma solidity ^0.8.17;\n\ncontract Verifier {\n    // Returns the address that signed a given string message\n    function verifyString(\n        string memory message,\n        uint8 v,\n        bytes32 r,\n        bytes32 s\n    ) public pure returns (address signer) {\n        // The message header; we will fill in the length next\n        string memory header = \"\\x19Ethereum Signed Message:\\n000000\";\n\n        uint256 lengthOffset;\n        uint256 length;\n        assembly {\n            // The first word of a string is its length\n            length := mload(message)\n            // The beginning of the base-10 message length in the prefix\n            lengthOffset := add(header, 57)\n        }\n\n        // Maximum length we support\n        require(length <= 999999);\n\n        // The length of the message's length in base-10\n        uint256 lengthLength = 0;\n\n        // The divisor to get the next left-most message length digit\n        uint256 divisor = 100000;\n\n        // Move one digit of the message length to the right at a time\n        while (divisor != 0) {\n            // The place value at the divisor\n            uint256 digit = length / divisor;\n            if (digit == 0) {\n                // Skip leading zeros\n                if (lengthLength == 0) {\n                    divisor /= 10;\n                    continue;\n                }\n            }\n\n            // Found a non-zero digit or non-leading zero digit\n            lengthLength++;\n\n            // Remove this digit from the message length's current value\n            length -= digit * divisor;\n\n            // Shift our base-10 divisor over\n            divisor /= 10;\n\n            // Convert the digit to its ASCII representation (man ascii)\n            digit += 0x30;\n            // Move to the next character and write the digit\n            lengthOffset++;\n\n            assembly {\n                mstore8(lengthOffset, digit)\n            }\n        }\n\n        // The null string requires exactly 1 zero (unskip 1 leading 0)\n        if (lengthLength == 0) {\n            lengthLength = 1 + 0x19 + 1;\n        } else {\n            lengthLength += 1 + 0x19;\n        }\n\n        // Truncate the tailing zeros from the header\n        assembly {\n            mstore(header, lengthLength)\n        }\n\n        // Perform the elliptic curve recover operation\n\n        bytes32 check = keccak256(abi.encodePacked(header, message));\n\n        return ecrecover(check, v, r, s);\n    }\n}\n",
  "sourcePath": "/Users/deepanshusingh/blockchain projects/teesta_interview/contracts/Verifier.sol",
  "compiler": {
    "name": "solc",
    "version": "0.8.17+commit.8df45f5f.Emscripten.clang"
  },
  "schemaVersion": "3.4.10",
  "updatedAt": "2022-11-10T16:17:19.833Z",
  "devdoc": {
    "kind": "dev",
    "methods": {},
    "version": 1
  },
  "userdoc": {
    "kind": "user",
    "methods": {},
    "version": 1
  }
}