{
  "contractName": "Verifier",
  "abi": [
    {
      "inputs": [
        {
          "internalType": "bytes32",
          "name": "hash",
          "type": "bytes32"
        },
        {
          "internalType": "uint8",
          "name": "v",
          "type": "uint8"
        },
        {
          "internalType": "bytes32",
          "name": "r",
          "type": "bytes32"
        },
        {
          "internalType": "bytes32",
          "name": "s",
          "type": "bytes32"
        }
      ],
      "name": "verifyHash",
      "outputs": [
        {
          "internalType": "address",
          "name": "signer",
          "type": "address"
        }
      ],
      "stateMutability": "pure",
      "type": "function",
      "constant": true
    }
  ],
  "bytecode": "0x608060405234801561001057600080fd5b50610354806100206000396000f3fe608060405234801561001057600080fd5b506004361061002b5760003560e01c8063c68e35b014610030575b600080fd5b61004a6004803603810190610045919061015a565b610060565b6040516100579190610202565b60405180910390f35b600080856040516020016100749190610295565b604051602081830303815290604052805190602001209050600181868686604051600081526020016040526040516100af94939291906102d9565b6020604051602081039080840390855afa1580156100d1573d6000803e3d6000fd5b50505060206040510351915050949350505050565b600080fd5b6000819050919050565b6100fe816100eb565b811461010957600080fd5b50565b60008135905061011b816100f5565b92915050565b600060ff82169050919050565b61013781610121565b811461014257600080fd5b50565b6000813590506101548161012e565b92915050565b60008060008060808587031215610174576101736100e6565b5b60006101828782880161010c565b945050602061019387828801610145565b93505060406101a48782880161010c565b92505060606101b58782880161010c565b91505092959194509250565b600073ffffffffffffffffffffffffffffffffffffffff82169050919050565b60006101ec826101c1565b9050919050565b6101fc816101e1565b82525050565b600060208201905061021760008301846101f3565b92915050565b600081905092915050565b7f19457468657265756d205369676e6564204d6573736167653a0a333200000000600082015250565b600061025e601c8361021d565b915061026982610228565b601c82019050919050565b6000819050919050565b61028f61028a826100eb565b610274565b82525050565b60006102a082610251565b91506102ac828461027e565b60208201915081905092915050565b6102c4816100eb565b82525050565b6102d381610121565b82525050565b60006080820190506102ee60008301876102bb565b6102fb60208301866102ca565b61030860408301856102bb565b61031560608301846102bb565b9594505050505056fea2646970667358221220de25eef055e72da442efd0dd0eca4e296b3c181fcdc6aa0c3854d747eaae8f8264736f6c63430008110033",
  "immutableReferences": {},
  "source": "// SPDX-License-Identifier: Deepanshu\npragma solidity ^0.8.17;\n\ncontract Verifier {\n    function verifyHash(\n        bytes32 hash,\n        uint8 v,\n        bytes32 r,\n        bytes32 s\n    ) public pure returns (address signer) {\n        bytes32 messageDigest = keccak256(\n            abi.encodePacked(\"\\x19Ethereum Signed Message:\\n32\", hash)\n        );\n\n        return ecrecover(messageDigest, v, r, s);\n    }\n}\n",
  "sourcePath": "/Users/deepanshusingh/blockchain projects/teesta_interview/contracts/Verifier.sol",
  "compiler": {
    "name": "solc",
    "version": "0.8.17+commit.8df45f5f.Emscripten.clang"
  },
  "schemaVersion": "3.4.10",
  "updatedAt": "2022-11-10T02:45:43.382Z",
  "networkType": "ethereum",
  "devdoc": {
    "kind": "dev",
    "methods": {},
    "version": 1
  },
  "userdoc": {
    "kind": "user",
    "methods": {},
    "version": 1
  }
}